:020000021000EC
:10000000000004207DE10600B5E106008DC4060075
:10001000B9E1060099C406009FC406000000000074
:1000200000000000000000000000000089610300E3
:10003000C1E10600000000002362030033620300F8
:10004000011E0700357C0600C7E10600C7E1060077
:10005000C7E10600C7E10600C7E10600C7E10600E8
:10006000C7E10600C7E10600C7E10600C7E10600D8
:10007000C7E10600951F0700C7E10600C988060012
:10008000C7E10600C7E10600C7E10600C7E10600B8
:10009000C7E10600C7E10600C7E10600C7E10600A8
:1000A000C7E10600C7E10600C7E10600C7E1060098
:1000B000C7E10600C7E106000000000000000000E4
:1000C000C7E10600C7E10600C7E10600C7E1060078
:1000D000C7E10600C7E10600C7E10600C7E1060068
:1000E000C7E10600C7E10600C7E106000000000006
:1000F00000000000C7E1060000000000C7E10600A4
:1001000010B5054C237833B9044B13B10448AFF351
:1001100000800123237010BD80110020000000002A
:10012000E426090008B5034B1BB103490348AFF3AC
:10013000008008BD0000000084110020E4260900B2
:10014000154B002B08BF134B9D46A3F5803A0021A9
:100150008B460F461348144A121A67F0A1F80F4B4A
:10016000002B00D098470E4B002B00D09847002062
:10017000002104000D000D48002802D00C485CF05E
:1001800029FF66F079FB2000290028F0ADF85CF02B
:100190001EFF00BF00000800000004200000000057
:1001A0004582030080110020D8190320D5CF060016
:1001B000000000000022C0E900228260704703684E
:1001C0005B69184703689B691847704770470000D0
:1001D00073B5114C20460E46154667F091FCB0F5FC
:1001E000FF7F16D22B46C0F50071324620440195A0
:1001F0006AF0FCF80546204667F082FCB0F5FF7F08
:1002000004D80A232354044400236370284602B010
:1002100070BD0025FAE700BFA41D002010B5042121
:1002200004465DF009F9204610BD10B541F2B02139
:1002300004465DF001F9204610BD000008B50546F2
:1002400001210D2025F034FF0A4C01210D2025F05D
:1002500073FF2946204625F02DFCFA2025F0CCFE20
:1002600000210D2025F068FF40F2D66025F0C4FE85
:10027000EBE700BFA020022010B5034B036004464B
:1002800000F0FCFD204610BDA4BE070010B50446DA
:10029000FFF7F2FF20460C215DF0CEF8204610BD9E
:1002A00010B5034B03600446FFF7E6FF204610BD80
:1002B000B4BE070010B50446FFF7F2FF20460C213C
:1002C0005DF0BAF8204610BD462930B513D041F292
:1002D000882300F58052C458083200239C420CD079
:1002E00012F8015BA94204D103F2224350F8230023
:1002F00030BD0133F2E70248FAE70020F8E700BF1B
:10030000DD710100462930B503D100F5945010305D
:1003100030BD20290FD041F20403C45800239C4271
:1003200009D05A018518AD698D4202D104321044BA
:10033000EEE70133F3E70020EAE741F204032DE999
:10034000F041C7580446884605460026B7420FD0FC
:10035000AB69202B09D14146E86967F055FA20B90D
:1003600004EB46100430BDE8F08101362035EDE79E
:100370000020F8E713B502AC012304F8011D1A466A
:10038000214600F0DBFD02B010BD0000F0B5224CAC
:10039000224E2349234D244F89B0204600F0A0FF70
:1003A0002046224C224932465CF00FFE122221499F
:1003B000204600F0D5FF20461F4C324629465CF00F
:1003C00004FE12221D49204600F0CAFF324629468B
:1003D00020465CF0FAFD384608F096FA6C46184B59
:1003E0003B60684615F0B2FB0FCC164D0FC594E884
:1003F0000F0085E80F0041F2A4234622FA5012496B
:10040000324638465CF0E1FD10491148324609B0E9
:10041000BDE8F0405CF0D9BDC4FF0120000200201F
:10042000BCBE0700A1020100FCFF0120D8FF012093
:1004300075120100E1BE0700E4FF012006BF0700BE
:10044000087308008C120220CB010100CD010100CD
:10045000040200207FB54FF4E1316148604E24F082
:100460001BF825F0ABFD41F287340546304623F0FA
:100470004BFE20B925F0A2FD401BA042F6D95949F8
:10048000574825F017FB5849554825F013FB5748A6
:1004900023F063FA10B95648FFF7D0FE554B564E7D
:1004A0001968CA18CB583260D31A1988042904D99C
:1004B0009B8813B1D358032B05D0504B504A1A6078
:1004C0004E4B1868E8E74F4D2B78BFF35B8F13F066
:1004D000010417D128465CF08BFD98B14A4B01937B
:1004E0004FF4F03300930294484A3168484B49482E
:1004F00009F006FD28465CF09DFD474A47494548FE
:100500005CF063FD464C4348206009F029FE054637
:1005100040B1444B444A1978002908BF1346374A72
:100520001360CDE70146206809F080FD3F4B294666
:100530001860206809F0B8FD3D4B3E491860284816
:1005400025F0ABFA2368986E08F004FE0A220146F3
:10055000234825F01DFB3849214825F0ABFA374BDD
:100560001C68236820469B689847002835D023687C
:100570003349DB6B20469847236831499B6C204602
:10058000984723682F49DB6A204698472E492D4813
:1005900000F0C4FE2D492B4800F0C0FE2368294915
:1005A0001B6D2046984729462748FFF7E3FE29465A
:1005B0002648FFF7DFFE236820465B6D98472449F5
:1005C000074825F077FA2349054825F073FA25F006
:1005D00007FD214B186004B070BD20485CE700BFE8
:1005E000A02002204A74080068740800E81A02205B
:1005F0007C74080030BF0700F4FF012008020020CF
:10060000B77408009C11002004020020FCFF0120A8
:10061000C01F0020B01202200002002025A101000E
:10062000A41F0020A41D00201B740800F0FF01205F
:10063000F8FF0120F97408000C750800B076080076
:1006400025750800C4FF0120D8FF0120E4FF012028
:100650001375080030750800C0FF01206C75080094
:100660002DE9F04F9D4B2DED048B1868036891B078
:100670001B69984725F0B4FC994A1368C01A0028F2
:10068000C0F2CD8003F51C5310339648136022F05E
:10069000F5FF954C50B1954B92481A1FA3F10801F4
:1006A00023F042F8003018BF012020708D4822F05E
:1006B000F8FF58B18E4B8B481A1FA3F1080123F0A5
:1006C0007BF88C4B003018BF012018702378002B6A
:1006D0007FD0884B1B78002B7BD0874B9FED877A90
:1006E000D3ED007A864C874D67EE877A1822CDEDE0
:1006F0000A7AD3ED017A67EE877A0AA9CDED0B7AF3
:10070000D3ED027A804B67EE877A9FED807ACDED4C
:100710000C7AD3ED007A67EE877A10A8CDED0D7ACA
:10072000D3ED017A67EE877ACDED0E7AD3ED027ABA
:10073000236867EE877A02FB0352CDED0F7A51F8FA
:10074000046B42F8046B8142F9D10133704E23608F
:1007500025F034FC3368C01AB0F57A7F14D36D49A4
:100760006D4825F09AF90A2221686B4825F0EBF9CB
:100770002F21694825F095F90A228021664825F045
:10078000E4F925F01BFC30602368802B47D1634BD4
:10079000D3F8008098F80030092B04D1604E3368FC
:1007A0001B78092B40D05F495B4825F083F95E49EF
:1007B0000023EA18C81802F5C066366842F8046BD0
:1007C0009042F8D11833B3F5C06FF2D140232360C3
:1007D00025E04F4D25F0F2FB2B68C01AB0F57A7F6B
:1007E0001DD352494C48524E25F057F92178514CAF
:1007F0004948002914BF3146214625F04EF94E499B
:10080000454825F04AF93B4B43481978002914BF65
:100810003146214625F04EF925F0D0FB286011B075
:10082000BDEC048BBDE8F08FD8F81830B3F5407FED
:1008300001D04249B8E70027DFF81091DFF810B186
:1008400005EB870209F11801BA46F2EC017AB9EC1E
:10085000017AFBEC016A049177EEC77A039287EE86
:10086000A67A0592D8ED037AC7EE277A17EE900A9A
:1008700063F08AFD07EE900AFDEEE77AD8F81020C3
:100880000499D8F8043017EE900A10447F286FF0CE
:100890007F02A8BF7F209042B8BF1046494503F8A9
:1008A0000A00039A0AF1010ACFD10637B7F5407F53
:1008B000C2D1234B186809F0E7FC08B1214973E75E
:1008C00033689F69032F49D01F49134825F0E5F885
:1008D0000A223946104825F038F968E7B076080052
:1008E000C0FF0120E81A0220A0110020BC1F002038
:1008F000B01F0020AC120220B41F00200AE81C41E7
:10090000D0FF0120A4110020A81F002035FA8E3C42
:10091000D4FF012051730800A0200220F0FF012025
:10092000F8FF012069730800BC1100202D73080036
:1009300077190900287308004A73080096730800A5
:10094000A41F0020C5730800DE730800C8720800E9
:10095000B072080000000000002474C95FED038A33
:100960001FED039ADFF82CB1DFF82CA10DF140093F
:1009700018EE903A49F8243D07468046326853689D
:10098000116913F90830D2ED037A5B1A08EE103AB8
:10099000B8EEC88A5BF8281028EE278A5046B5EED4
:1009A000C08AF1EE10FAD8BF9FED368AA9EC018A11
:1009B00025F073F83D21504625F073F818EE100A23
:1009C00062F0B2FB03230246009350460B4625F02B
:1009D0009BF92D4A2D4908F10103032B18BF11463D
:1009E0005046039325F059F8B4EEC98A039BF1EE03
:1009F00010FAC4BF4746B0EE489A032B78EE888AB7
:100A00009846BBD1F5EEC08AF1EE10FA35DD9FEDC8
:100A1000208ADDED077A67EE887AC7EEA87A17EEAE
:100A2000900A63F0B1FC07EE900AF5EEC07AF1EEA1
:100A300010FA22D4F4EEC87AF1EE10FA1FDCFCEEC4
:100A4000E77ACDED037A9DF80C60124B124853F80B
:100A5000271025F022F811490F4825F01EF80A2228
:100A600031460D4825F08AF831460D48FFF782FCE3
:100A7000F9B20C48FFF77EFC99E60026E5E764260C
:100A8000E3E700BF00000000828F0800B279080091
:100A90000000C842E0720800A0200220077408008D
:100AA000D8FF0120E4FF0120704710B55C21044607
:100AB0005CF0C2FC204610BD0B4A02601F210022E0
:100AC000C0E90921C0E90B2280F8342080F83520E4
:100AD000C0E90E220264A0F8442080F84620C0E954
:100AE0001222C0E915227047F075080000231F226A
:100AF000C0E90A23036380F83530C0E90E3303648C
:100B000080F84630C0E91233C0E9153370478B6A6C
:100B10008362CB6AC3620B6B036391F8343080F855
:100B2000343091F8353080F835308B6B8363CB6B84
:100B3000C3630B6C0364B1F84430A0F8443091F8FF
:100B4000463080F846308B6C8364CB6CC364B1F85C
:100B50005030A0F850304B6D43658B6D8365704706
:100B600008B5FFF7D4FF08BD70B5054686B06846E6
:100B70000E4603F049FCEC6C6846002CCCBF0234F6
:100B8000002403F07FFC0230241AA86A241808D439
:100B9000AC62AE64684603F075FCE864012006B000
:100BA00070BD0020FBE710B5036C23B190F8464000
:100BB000023304B10233941C1B1B846A1B1958BFF7
:100BC000C0E90F124FF000045BBF80F8464083621B
:100BD0002046012010BD30B5046C24B190F8465079
:100BE000023405B102341D1D641B856A64195FBFA0
:100BF000C0E90F230123A0F8441080F8463056BF07
:100C000084620020184630BD30B5846D002CCCBF06
:100C1000043400241D1D641B856A64195DBFC0E98E
:100C20001523A0F850108462002058BF012030BD69
:100C300070B50546806B0E4688B1047814B166F035
:100C40005FFF841C304666F05BFF0230241AA86AFE
:100C500024185DBFAC62AE630120002070BD044665
:100C6000F0E790F83530826A002B0CBF6FF002037A
:100C700000239B185FBF8362012380F8353080F822
:100C8000341054BF18460020704704307047406A43
:100C9000704790F83500704738B50446406AC0F197
:100CA0001F039342154608DB0430204466F0FAF92E
:100CB000626A2A446262012038BD0020FCE770B5F8
:100CC0000446406A0E461D4611460233C0F11F021B
:100CD0009A420FDB23186A1C1A71821C063062626A
:100CE00020445E712A4666F0DDF9636A2B44636234
:100CF000012070BD0020FCE770B586B0054668464F
:100D000003F082FB684603F0BDFB022804466846F8
:100D1000CCBF0626022603F0B3FB2346024631462B
:100D20002846FFF7CCFF06B070BD13460A46FF21E8
:100D3000FFF7C5BF70B588B008AC064624F8201D83
:100D400010461D461A4601460DF1020066F0AAF94A
:100D5000AB1C2246FF213046FFF7B1FF08B070BD43
:100D600070B588B008AC064624F8201D10461D4614
:100D70001A4601460DF1020066F094F9AB1C2246BA
:100D800016213046FFF79BFF08B070BD07B502AAD9
:100D9000012302F8011D1946FFF791FF03B05DF82A
:100DA00004FB70B5054610460E46144666F0A8FED4
:100DB0002246034631462846BDE87040FFF77FBF14
:100DC00070B5054608460C4666F09AFE1D2807D900
:100DD000224628461D230821BDE87040FFF76FBF5B
:100DE000224628460921BDE87040FFF7DABF38B532
:100DF000C16A00230546436229B1026B1AB1BDE8FE
:100E00003840FFF749BF95F835307BB395F834107B
:100E10002846FFF7BBFF0446A96C21B12846FFF71F
:100E20006BFF0440E4B2E96B61B12B6C53B195F8F0
:100E30004620EAB10A462846B5F84410FFF77AFF83
:100E40000440E4B26A6D42B1AB6D33B1B5F85010F5
:100E50002846FFF785FF0440E4B2A96B21B128467C
:100E6000FFF7AEFF0440E4B2204638BD0124D3E7CB
:100E70001A462846FFF759FFE2E700000C4B10B571
:100E800004460360406838B100F09AFA20B96068FF
:100E900010B103685B689847A06838B101F015F895
:100EA00020B9A06810B103685B689847204610BD60
:100EB0000076080010B50446FFF7E0FF20460C213D
:100EC0005CF0BAFA204610BD064B10B5C0E90031FF
:100ED00000230446836011B1084600F06CFA2046F6
:100EE00010BD00BF00760800064B10B5036000235C
:100EF0000446C0E9013111B1084600F0E1FF204687
:100F000010BD00BF007608002DE9F34104465420CF
:100F100098460E4617465CF063FA9DF82030009321
:100F2000054643463A46314600F01EFB2946204618
:100F3000FFF7CAFF204602B0BDE8F08110B4446854
:100F400024B120465DF8044B00F04EBA806818B119
:100F50005DF8044B00F0E2BF5DF8044B7047406859
:100F600070477047024B186803681B69184700BF39
:100F7000A0790800024B186803685B69184700BF36
:100F8000A079080010B4054B01791B681A685469F0
:100F9000421D184623465DF8044B1847F4770800B5
:100FA00010B50B4B0446186821790368621D9B6AD3
:100FB00098474FF6FF739842014606D0054B1868D4
:100FC0000268BDE81040926A104794F94B0010BDCA
:100FD000F4770800A079080010B54C2104465CF0B5
:100FE0002BFA204610BD000010B58AB0044648799F
:100FF0004B7A8A7A039088790290C8790190097AAD
:10100000009105A8044966F06DFB05A9204624F06F
:10101000C8FE20460AB010BD0876080007B50023B8
:101020000622694605300093ADF8043066F008F8F2
:10103000003018BF012003B05DF804FB08B5027949
:101040000B799A4208D106220531053065F0F8FF88
:10105000B0FA80F0400908BD0020FCE710B50A4B4B
:101060000446186803681B699847236820461B6A72
:10107000984740B1054B217918680368621D5B6B86
:10108000BDE81040184710BDA0790800F4770800AB
:1010900008B502790B799A4208D10622053105304C
:1010A00065F0CEFF003018BF012008BD0120FCE72D
:1010B000064A02607F210022C272027380F84B1040
:1010C000C0F80520A0F80920704700BF307608005E
:1010D00010B501710021C1720173064C04607F21BB
:1010E00080F84B101168C0F805109288A0F809200C
:1010F00010BD00BF307608002DE9F0410F461449BD
:10110000064624F04EFE3A7B00218A421CDD7B1805
:1011100001F10208597B9B7B083B012B01F1FF3455
:101120000FD82146304624F010FE0025AC420BDDDE
:1011300008EB05033B443046597B24F095FE01350E
:10114000F4E704EB0801E0E73046BDE8F08100BFBA
:10115000E01209002DE9F04F85B08846224901923E
:10116000834624F01EFE0024A14698F80C30A342CA
:1011700035D908EB0403671CFFB25E7B08EB07035D
:101180005B7B9A1E012A25D9063B012B24D810250A
:101190000234E4B205FB05F30D34009344444FF0F0
:1011A000000A731EEAB2534516DD019989450BD139
:1011B000114620460393029203F066F90146584611
:1011C00024F027FEDDE90223009909F10109AA4470
:1011D0000C44E8E70225DBE73E44F4B2C5E7584695
:1011E00005B0BDE8F08F00BFE012090010B5002285
:1011F0000446FFF7AFFF204610BD08B5134602793D
:101200008A4208D106221946053065F019FFB0FA66
:1012100080F0400908BD0020FCE710B5044601201D
:1012200000FA01F1E1722273194604F10D0065F034
:1012300039FF9DF9083084F84B3010BD70B50D466C
:101240001146C27A42F010020446C272007B0D3091
:101250002A4620441E4665F025FF237B84F84B6018
:101260001D44257370BDC37A13F0180F14BF0120FD
:10127000002070470C4B10B504460360406838B13D
:1012800000F09EF820B9606810B103685B68984769
:10129000A06838B100F019FE20B9A06810B1036849
:1012A0005B689847204610BD6476080010B5044678
:1012B000FFF7E0FF20460C215CF0BEF8204610BD91
:1012C000064B10B5C0E9003100230446836011B11C
:1012D000084600F070F8204610BD00BF6476080094
:1012E00070B5044630200E465CF07AF8314605466B
:1012F00000F020FD29462046FFF7E2FF204670BDA2
:101300000346406808B100F04DB8986808B100F095
:10131000D5BD0148704700BFE0120900406808B120
:1013200000F046BD704740687047000030B585B09A
:10133000012504462B46009592B2FFF7E5FD04A96E
:10134000064B2360002301F8013D2A462B46204628
:10135000FFF7F4FD204605B030BD00BFA4BE070076
:1013600010B50446FFF7E2FF014B2360204610BD95
:10137000B4BE070070470020704710B52021044616
:101380005CF05AF8204610BD10B5054B044640F8F5
:10139000043B03F039F80023E361204610BD00BF91
:1013A00074760800043003F069B8043003F068B8BC
:1013B000043003F067B8C3690133C361184670474E
:1013C000C369013BC3611846704742F6030070478A
:1013D00090F82000704790F821007047406A7047ED
:1013E000806A7047808D7047436A9A422DE9F041C8
:1013F000A8BF1A460446828592B2806A0F4665F0FD
:1014000051FE94F82E300BB1636AA38594F8203016
:1014100098060FD5A28E91070CD51F4B218E186808
:1014200003685D6D0131A38DA26AAC4689B2BDE847
:10143000F0416047DA0609D5A38EDB0706D5164BC7
:10144000218E1868036801311D6DECE794F8323085
:10145000F3B1124B1868036821465B6A9847104B3A
:101460001D682B6801461E6BA38D3A462846B0477F
:10147000094B186803681B6B984748B9094B1868F3
:1014800003689B68984718B12B6828465B6D98479E
:10149000A08DBDE8F08100BFF47708004079080016
:1014A000B0760800F478080038B5054608460C46C2
:1014B00066F026FB214602462846BDE83840FFF785
:1014C00093BF01867047008E7047008E013080B256
:1014D0007047806B7047836B994208D2C36B0022C0
:1014E000914202D05B680132FAE718687047002029
:1014F0007047000030B5114B03600B7903710B4648
:1015000001F1490453F8052FC0F805209B88A0F885
:101510000930CB7AC3720B7B037300F10D0201F12A
:101520000D0353F8045B42F8045BA342F9D11B8816
:10153000138091F94B3080F84B3030BD3076080085
:1015400038B5044608200D465BF04AFF0023C0E989
:10155000005363682BB960602368A0600133236087
:1015600038BDA3685860F7E770B5044615461E46B7
:10157000FFF70AFF1E4B2360B6F5007F4FEA1523E5
:1015800084F821303346A8BF4FF400730021636212
:101590009DF8103084F82050A18584F82E302186E3
:1015A00084F8321084F83310A186C4E90E11216446
:1015B000102204F1440065F073FE15F0300F11D0D5
:1015C0002C205BF00DFF0B490546022304F1340289
:1015D00000F0D6F82846FFF7EEFE294604F1380061
:1015E000FFF7AEFF304665F00BFAA062204670BDF3
:1015F000907608008076080070B5044640680025A3
:101600002368AB4206D9466808215BF015FF013517
:101610003046F5E70023C4E90033A36070BD000045
:10162000154B70B5044603600025A36B9D4212D292
:10163000E36B0022954202D05B680132FAE71E6834
:101640003046FFF7BDFE20B91EB1336830465B68F7
:1016500098470135E9E704F138052846FFF7CCFF44
:10166000A06A08B165F0D4F92846FFF7C5FF204607
:10167000FFF780FE204670BD9076080010B5044646
:10168000FFF7CEFF204654215BF0D6FE204610BD6A
:10169000F0B5C56C97B0044617461E467DB103A849
:1016A000FFF728FF21466846FFF70EFC694603A8AE
:1016B000A8476846FFF7E2FB03A8FFF752FCA16AC0
:1016C0001C9A3944304665F0EDFC17B0F0BD70B59A
:1016D00004460E461146012280F8332096B01A4681
:1016E000FFF782FE256D85B1314603A8FFF702FFA3
:1016F00021466846FFF7E8FB694603A8A847684605
:10170000FFF7BCFB03A8FFF72CFC16B070BD30B58B
:10171000838E02F00302934297B0044617D082866C
:10172000002A0CBF44224022024455687DB103A820
:10173000FFF7E0FE21466846FFF7C6FB694603A8AF
:10174000A8476846FFF79AFB03A8FFF70AFC17B003
:1017500030BD4FF42450704710B5034B036004466E
:10176000FFF708FE204610BDA476080010B5044619
:10177000FFF7F2FF20462C215BF05EFE204610BDF5
:1017800070B504461D461646FFF7FEFD064B236066
:10179000B5F5007FA8BF4FF400750023266265628F
:1017A0002385204670BD00BFA4760800406A7047BC
:1017B000006A704701857047024B186803681B690F
:1017C000184700BFA0790800024B186803685B69DE
:1017D000184700BFA079080010B5064B18680368C9
:1017E0001B699847044B18680368BDE810401B6BE1
:1017F000184700BFA0790800F477080010B5064B21
:10180000186803681B699847044B18680368BDE8AB
:101810001040DB6B184700BFA0790800F477080080
:10182000024B186803689B6C184700BFF4770800E8
:101830000C30704768307047024B186803681B69AA
:10184000184700BF40790800024B186803685B69BD
:10185000184700BF40790800024B186803689B696D
:10186000184700BF40790800024B186803681B69DD
:10187000184700BFF4780800024B186803685B69DA
:10188000184700BFF4780800024B186803685B6AC9
:10189000184700BFF478080010B5074B04461868D5
:1018A00003681B699847054B19680B682046DB6C79
:1018B0009847204610BD00BFA0790800F4770800C3
:1018C00010B5074B0446186803681B699847054B19
:1018D00019680B6820469B6A9847204610BD00BFD8
:1018E000A0790800F4780800024B18680368DB6AE6
:1018F000184700BFF4780800024B186803689B691A
:10190000184700BF807B0800024B18680368DB693A
:10191000184700BF807B0800024B186803681B6BE8
:10192000184700BFF4780800024B18680368DB68AA
:10193000184700BFF4770800024B186803681B6A59
:10194000184700BF807B0800024B186803685B6A79
:10195000184700BF807B0800024B1B68C3F8F010DB
:10196000704700BFA0790800024B1B68C3F8F8104D
:10197000704700BFA0790800024B1B68C3F8F41041
:10198000704700BFA0790800024B1B68C3F8EC1039
:10199000704700BFA0790800024B1B68C3F8FC1019
:1019A000704700BFA0790800024B1B68C3F8001104
:1019B000704700BFA0790800024B18680368D3F88D
:1019C0009C301847A0790800024B18680368D3F8C8
:1019D000A0301847A0790800F0B52A4B1D682B6885
:1019E00087B004469B6828469847064620B9236876
:1019F0002046DB6898470DE0642024F0FDFA2B6850
:101A000028469B699847064638B123682046DB681C
:101A100098470026304607B0F0BD05AA2B68019212
:101A20000DF112020092DF6904AA0DF10E030DF10F
:101A30000D012846B8470028D9D12B684FF0FF3256
:101A4000D96A28466FF0404388470028CFD12B68D9
:101A500040F2FF32196B28460023884706460028CB
:101A6000D3D12B680DF10F025B6B0DF116012846E7
:101A700098470028BBD1044B186803689B689847B7
:101A80000126C7E7A0790800407908000A4B10B585
:101A9000044618680368DB689847084B18680368B1
:101AA000DB68984704F10C00FFF720F804F16800A8
:101AB000BDE81040FFF71AB840790800A079080087
:101AC00010B58CB000230593ADF81830104B0446C8
:101AD0001868036805A91B6A98479DF814100391BC
:101AE0009DF8151002919DF8161001919DF81710A0
:101AF0009DF818309DF81920009107A8054965F058
:101B0000F1FD07A9204624F04CF920460CB010BD89
:101B1000A0790800087608000C30FFF725B870B5EA
:101B20000368044608469D6AFFF7EAFB2B46014618
:101B30002046BDE8704018470C30FFF765B80C3000
:101B4000FFF731B80C30FFF746B86830FFF770B8D0
:101B50006830FFF705B810B500F10C042046FEF719
:101B6000FFFF2046FFF795F828B920460621BDE87B
:101B70001040FFF776B810BD2DE9F74300F10C05D2
:101B8000044668342846FFF732F92046FFF72FF95C
:101B90000E4B1E6833682846DF68FFF776F88046EC
:101BA0002846FFF774F805462046FFF76EF8814691
:101BB0002046FFF76CF8C0B200904B46EAB24146AF
:101BC0003046B84703B0BDE8F08300BFF4780800A2
:101BD0007FB5094B1C682368164601A89D6924F04F
:101BE0000EF9324601A92046A847044601A824F070
:101BF0008DF8204604B070BDF47808007FB5094B1D
:101C00001C682368164601A8DD6924F0F8F83246FE
:101C100001A92046A847044601A824F077F82046E9
:101C200004B070BDF47808007FB5094B1C682368C8
:101C3000164601A81D6A24F0E2F8324601A92046A2
:101C4000A847044601A824F061F8204604B070BDFE
:101C5000F478080002290BBF044B054B186818687C
:101C60000BBF036803685B6B9B6D1847F478080033
:101C7000F477080038B50446084B44F80C3B054699
:101C80002046FEF719FF05F16800FEF715FF062153
:101C90002046FEF7E6FF284638BD00BFBC760800A8
:101CA00010B5054C2046FFF7E5FF2046034A0449DE
:101CB000BDE810405BF089B9481302200002002003
:101CC000C51C010010B5064B044640F8683BFEF702
:101CD000EBFE04F10C00FEF7E7FE204610BD00BF4E
:101CE000BC76080010B50446FFF7ECFF2046C4217F
:101CF0005BF0A2FB204610BD10B50B4B19680B68BA
:101D000094B001A8DB6C984701A8FFF787F948B1A8
:101D100001A8FFF745F9044601A8FFF722F920467C
:101D200014B010BD7F24F7E7F47708004FF420507B
:101D30007047000010B50446FFF726FB044B2360F4
:101D40000023C4E90833C4E90A33204610BD00BFAC
:101D500088770800018442847047008C7047408C6B
:101D60007047406A7047436A994208D2836A0022EA
:101D7000914202D05B680132FAE718687047002090
:101D8000704738B5044608460D46FFF714FB082097
:101D90005BF026FB0023C0E90053A36A2BB9A062C5
:101DA000636AE0620133636238BDE36A5860F7E753
:101DB00010B504460846FFF7D2F8014620B1204688
:101DC000BDE81040FFF7DDBF10BD70B504464068A8
:101DD00000252368AB4206D9466808215BF02CFB3E
:101DE00001353046F5E70023C4E90033A36070BD38
:101DF00010B504462430FFF7E8FF0023236210BD2E
:101E0000134B70B5044603600025636A9D4212D2ED
:101E1000A36A0022954202D05B680132FAE71E688D
:101E20003046FFF7CDFA20B91EB1336830465B6803
:101E300098470135E9E72046FFF7DAFF04F124006F
:101E4000FFF7C3FF2046FFF795FA204670BD00BF9D
:101E50008877080010B50446FFF7D2FF20463021EE
:101E60005BF0EAFA204610BD10B5044B044640F87A
:101E7000043B23F04BFF204610BD00BF9C770800B9
:101E800010B50446FFF7F0FF204614215BF0D4FAAA
:101E9000204610BD38B504462546074B45F8043B9F
:101EA0000846114602F0F0FA0146284623F079FF71
:101EB00000232361204638BD9C77080040687047A6
:101EC000036901330361184670470369013B0361ED
:101ED0001846704770B504461E46BDF81450FFF70B
:101EE000D9FF0D4B2360BDF81030E382BDF81830E8
:101EF000257663832D0A00230122A6826576C4E934
:101F0000073384F8243084F82520C4E90A33C4E96F
:101F10000C33204670BD00BFAC7708002DE9F043BC
:101F20009846274B1E68336885B004460F469B6B66
:101F3000818A30469146984718B9002005B0BDE81F
:101F4000F0833368A18A5B6C30469847033885B2CA
:101F50004D45A8BF4D462946E06965F001FAE061AC
:101F60000028EAD0237E1A071CD5B8F1000F19D03B
:101F700003A833680190E8B20090D3F86080628BC8
:101F8000A18A3B463046C0470028D7D09DF80C3088
:101F9000012BD2D02A463946E06965F083F82562E4
:101FA0000120CBE75B07C8D53368628BA18AE8B212
:101FB0000090D3F8648030463B46C047EAE700BF54
:101FC000F4770800408B704738B5044608460D4644
:101FD000FFF776FF08205BF003FA0023C0E9005307
:101FE000E36A2BB9E062A36A20630133A36238BDC0
:101FF000236B5860F7E770B50446406800252368F6
:10200000AB4206D9466808215BF016FA0135304626
:10201000F5E70023C4E90033A36070BD03688B4279
:1020200008D9436800228A4202D05B680132FAE78D
:102030001868704700207047F8B50546134B45F8FF
:10204000283B04460026A36A9E420ED2314628460B
:10205000FFF7E4FF0746FFF738FF20B91FB13B68E1
:1020600038465B6898470136EDE72846FFF7C3FF1F
:10207000E06918B164F0CCFC0023E3612846FFF767
:10208000BAFF2046FFF7F0FE2046F8BDAC77080007
:1020900010B50446FFF7D0FF204638215BF0CCF99D
:1020A000204610BD70B50446036296B00D46C06967
:1020B0001946164665F054F9E06110B9206216B071
:1020C00070BD012384F824300023314684F8253084
:1020D000226A64F0E7FF666B002EF0D0194B039381
:1020E0002B798DF810302B4605F1490153F8052F57
:1020F000CDF811209B88ADF81530EB7A8DF81730AC
:102100002B7B8DF818300DF1190205F10D0353F8F2
:10211000040B42F8040B8B42F9D11B88138095F80D
:102120004B308DF8573021466846FEF7DDFE694694
:1021300003A8B0476846FEF7A1FE03A8FEF711FF0B
:10214000BDE700BF30760800074B10B504460360BA
:10215000806918B164F05CFC0023A3612046FFF79E
:1021600083FE204610BD00BFBC77080010B50446B2
:10217000FFF7EAFF204620215BF05EF9204610BD04
:1021800038B504461D46FFF785FE054B2360BDF8B4
:102190001030E3820023A582C4E90633204638BD0F
:1021A000BC770800034A02600022C0E90122C26035
:1021B000704700BFCC77080038B5044608460D4686
:1021C000FFF77EFE08205BF00BF90023C0E9005307
:1021D000A3682BB9A0606368E0600133636038BD19
:1021E000E3685860F7E7406870474368994208D24F
:1021F00083680022914202D05B680132FAE71868D6
:1022000070470020704770B5044640680025236879
:10221000AB4206D9466808215BF00EF9013530461D
:10222000F5E70023C4E90033A36070BD70B506462E
:10223000002473689C4212D2B3680022944202D0F8
:102240005B680132FAE71D682846FFF73EFE20B9B9
:102250001DB12B6828465B6898470134E9E7301DBB
:10226000FFF7D1FF70BD000038B50446054B44F8B8
:10227000043B0546FFF7DAFF2046FFF7C4FF284678
:1022800038BD00BFCC77080010B50446FFF7ECFF5F
:10229000204610215BF0D0F8204610BD38B504462A
:1022A0001D46FFF7F7FD084B2360BDF81030E382B1
:1022B000A582064904F1180023F073FD0023C4E948
:1022C0000933E362204638BDDC770800E0120900DC
:1022D000808A7047C08A7047406A7047436A994253
:1022E00008D2836A0022914202D05B680132FAE789
:1022F000186870470020704738B5044608460D46F8
:10230000FFF7DEFD08205BF06BF80023C0E9005307
:10231000A36A2BB9A062636AE0620133636238BDCD
:10232000E36A5860F7E770B5044640680025236803
:10233000AB4206D9466808215BF07EF8013530468D
:10234000F5E70023C4E90033A36070BD154B70B5F9
:10235000044603600025636A9D4212D2A36A0022EC
:10236000954202D05B680132FAE71E683046FFF7FB
:10237000ACFD20B91EB1336830465B689847013523
:10238000E9E704F124052846FFF7CDFF2846FFF7CB
:10239000CAFF04F1180023F0B9FC2046FFF764FDE2
:1023A000204670BDDC77080010B50446FFF7CEFF6D
:1023B000204630215BF040F8204610BDA0F8A81060
:1023C0007047C0F8AC1070472DE9FF41013A13F88F
:1023D000014BD6B20268CDE90233526C05460F4676
:1023E00090470C2C02462968029B79D02FD8052CE7
:1023F00069D01AD8022C60D00BD8012C53D00623F8
:102400000093D1F8DC600023224639462846B047C5
:102410006EE0032C54D0042CF1D10093D1F89440F9
:10242000334639462846A04762E0092C52D007D8E7
:10243000062C4BD0082CE2D10093D1F8A440EFE752
:102440000A2C4DD00B2CDAD1D1F8B4402DE0162C4B
:1024500051D00FD8112C40D005D8102CCFD10093DB
:10246000D1F8B840DCE7122C18D0132CC7D1D1F822
:10247000C8401AE01D2C04D00CD8182C3FD01B2CBF
:10248000BDD10093D1F8D480334622463946284640
:10249000C0472DE01E2C36D0522CB0D1CDE90063C0
:1024A000D1F8C46020E0D1F884403246394628464D
:1024B000A44604B0BDE8F0416047D1F88840F4E795
:1024C000D1F89040F1E7D1F89C40EEE70093D1F8C5
:1024D000A040A5E7D1F8AC40E7E7D1F8C040E4E779
:1024E000CDE90063D1F8B060234639462846B047AD
:1024F00004B0BDE8F0810093D1F8CC4090E70093A0
:10250000D1F8D0408CE7D1F8D840CEE700F18C0369
:102510004FF6FF72B0F8B010914204D11C309842CF
:10252000F8D1002070470120704708B503689B6A06
:1025300098474FF6FF73C01A18BF012008BD00006E
:1025400038B50A4B0446186803681B690D4698475E
:10255000204604F18C03B0F8B020AA4204D01C300D
:102560009842F8D1002038BD0120FCE7A07908008E
:1025700000F18C0390F9C820002A04DB1C3098423B
:10258000F8D1002070470120704730B500231C248B
:1025900004FB0302B2F8B0508D4204D00133052B86
:1025A000F6D1002002E092F8C800C00930BD30B575
:1025B00000231C2404FB0302B2F8B0508D4202D168
:1025C000B2F8C00030BD0133052BF3D11720F9E775
:1025D0001FB5ADF80D200268009302248DF80C4061
:1025E0000323D2F8F04003AAA04704B010BD1FB5E2
:1025F000ADF80920ADF80B30069A03680092042468
:102600008DF8084002AAD3F8F0400523A04704B093
:1026100010BD1FB5ADF80B30BDF81830ADF809206E
:10262000ADF80D30079A0368009210248DF8084029
:1026300002AAD3F8F0400723A04704B010BD1FB58D
:10264000ADF80B30BDF81830ADF80920ADF80D30FD
:10265000079A0368009208248DF8084002AAD3F86C
:10266000F0400723A04704B010BD012380F83C319F
:10267000704700001FB5ADF80A309DF818308DF88E
:102680000C30084B8DF8092001208DF808001868DF
:1026900002AA03680092D3F8944004220523A047BD
:1026A00004B010BDA079080001299CBF00EB810097
:1026B000C0F8542170471FB5ADF80D200268009393
:1026C0000A248DF80C400323D2F8F04003AAA04757
:1026D00004B010BD70B500231C2505FB0304B4F83D
:1026E000B0608E4204D00133052BF6D1002002E009
:1026F00084F8C820012070BD70B500231C2505FB9F
:1027000003F40619B6F8B0608E4204D00133052BED
:10271000F5D1002010E004F1B3010144941D11F83B
:10272000015F04F801599442F9D11C2202FB030312
:10273000012093F8B330237070BD000010B5054B35
:1027400003600446D0F8400108B164F061F9204606
:1027500010BD00BF0078080010B50446FFF7EEFF7B
:1027600020464FF4AE715AF067FE204610BD0000BF
:102770002DE9F0431D4B1D688BB006230F46042145
:10278000002490462A680097CDE90713C821CDE9B7
:1027900005410C21CDE90331CDE901840646D2F88B
:1027A00054902346302260212846C847D8B923F0E8
:1027B00005FC044623F002FCD6F8AC30001B98421E
:1027C0002B680DD21B6928469847336842465B6BDD
:1027D0003946304698470028ECD00BB0BDE8F0836E
:1027E000DB6D284698470020F7E700BFA079080076
:1027F000F8B503689B6A044698474FF6FF73984202
:1028000006461ED0104B1D682B680146D3F8983041
:102810002846984723F0D2FB074623F0CFFBD4F895
:10282000AC30C01B98420CD22B6828461B699847D5
:10283000236831469B6B204698470028EDD1012044
:10284000F8BD0020FCE700BFA07908002DE9F341A6
:102850000546089CA5F848111078C5F84C41013090
:1028600085F84A01002085F850011948066830684B
:102870000092D0F89480DBB2042230460F46C04765
:1028800024B323F09BFB044623F098FBD5F8AC302F
:10289000001B984214D2336830461B6998472B6856
:1028A00039469B6B2846984750B195F8500100284F
:1028B000EAD04FF6FF73A5F8483102B0BDE8F081C9
:1028C0004FF6FF73A5F848310020F6E72046F4E7FD
:1028D000A07908002DE9F047994603689B6A0446F1
:1028E00098474FF6FF739842074604D14FF000080F
:1028F0004046BDE8F08723680146D3F8E030204623
:10290000984780460028F1D000251C2303FB054A88
:10291000BAF8B060BE4233D1DAF8C4303BB9102007
:102920005AF05EFD0746FFF73DFCCAF8C4701C2351
:1029300003FB0545D5F8C450002DD7D02846B9F182
:10294000000F21D1FFF772FC23682A46D3F8E47008
:1029500031464B462046B8470028C7D023682A4650
:10296000D3F8E8303146204698470028BED0236887
:102970002A4631462046D3F8EC30BDE8F0471847E8
:102980000135052DC2D1B1E7FFF72DFC00278246A6
:102990005745D9DA39462846FFF727FCFFF78EFA64
:1029A000494664F005FF0028A2D00137F0E7F0B5F2
:1029B000C5B004469DF82851ADF80D200F461221F0
:1029C0008DF80C102A4619460DF10F0064F06AFBD1
:1029D00023684B9A0092D3F8F06003AAEB1C3946A7
:1029E0002046B04745B0F0BDF0B5C5B004469DF8EF
:1029F0002851ADF80D200F4652218DF80C102A46B3
:102A000019460DF10F0064F04DFB2368002200927F
:102A1000D3F8F06003AAEB1C39462046B04745B016
:102A2000F0BD70B500241C2505FB04F3C618B6F8EC
:102A3000B0608E4204D00134052CF5D1002006E0B0
:102A4000C9331488C452C11893788B70012070BDAB
:102A500010B500F1C90300F2551033F8194C8C423F
:102A600001BF1C8814809C7894701C338342F4D17D
:102A7000002010BD70B500241C2505FB04F3C6180A
:102A8000B6F8B0608E4204D00134052CF5D1002098
:102A900006E0B433184403681360838893800120F0
:102AA00070BDF0B500241C2606FB04F3C518B5F86C
:102AB000B0708F4204D00134052CF5D1002009E01C
:102AC000BA330344591E11F8010F20B9C1F1BF00F8
:102AD0004019F8D1F0BD196811609B8893800120DE
:102AE000F8E700002DE9F04196B098461C9E044698
:102AF00000271C234FF6FF7C03FB07F56019B0F895
:102B0000B0E0E64505D00137052FF5D116B0BDE898
:102B1000F081172380F8B220A0F8C030A0F8B010E0
:102B200080F8B38005F1B4033168E150E218B3884E
:102B3000938001A9731E052213F8010F505412F15E
:102B4000FF32F9D20D4B1868BA3503686719D3F80C
:102B500090303A46984708B96051B880D4F854414B
:102B6000002CD3D03246414603A8FEF7B1FA03A8A1
:102B7000A04703A8FEF7F5F9C8E700BFA079080051
:102B80002DE9F04106460F46904600F1B4050024B9
:102B900015F8013CBB420CD106224146284664F0A0
:102BA0004FFA30B91C2303FB0464B4F8B000BDE84D
:102BB000F0810134052C05F11C05E9D14FF6FF70B9
:102BC000F5E72DE9F04106460F46904600F1B405C1
:102BD000002415F8013CBB420CD106224146284690
:102BE00064F02EFA30B91C2303FB0464D4F8C4004B
:102BF000BDE8F0810134052C05F11C05E9D1002068
:102C0000F6E738B54FF6FF7204460B460020B3F8DE
:102C1000B050954203D093F8B250012D08D0013046
:102C2000052803F11C03F2D12046FEF741FA0AE021
:102C30001C23434303F1B4020B440A44204693F897
:102C4000B310FEF745FA204638BD98B5B0F8A82075
:102C5000D31DEC46DB08ACEBC30300AF9D46036815
:102C6000D3F88C406B46A047003018BF0120BD460A
:102C700098BD00002DE9F04F87B002AF9146DFF814
:102C800090A0B96000F18C020546FA601C4600264F
:102C9000B5F8B080C7F804D04FF6FF7398452BD035
:102CA000B5F8C030DA1D6946D208A1EBC202033B79
:102CB00095469BB2A4B29C424FF01B0228BF1C4613
:102CC0008DF808203A89ADF80920494622460DF1D1
:102CD0000B0064F0E7F9DAF800000DF1080B026868
:102CE000CDF800B0E31CD2F894B0DBB20422414628
:102CF000D847D7F804D00136FB681C359D42C7D1B0
:102D0000002E14BF204600201437BD46BDE8F08FCA
:102D1000A07908002DE9F04F87B002AFC7E9002184
:102D200000F5A072064600F1B405BA601C464FF0EB
:102D3000000935F804ACC7F80CD04FF6FF739A457C
:102D400042D0AB89DA1D6946D208A1EBC202033B2F
:102D500095469BB2A4B29C424FF01D0228BF1C4670
:102D60008DF80820BA88ADF80920396822460DF19F
:102D70000B0064F097F9002386F83C31194BD3F827
:102D800000800DF1080BD8F80020CDF800B0E31C4E
:102D9000D2F894B0DBB2042251464046D84796F8A8
:102DA0003C316BB9D8F8003040461B69984733680E
:102DB00015F8011C5B6B2A46304698470028EED177
:102DC000D7F80CD009F10109BB681C35AB42B0D172
:102DD000B9F1000F14BF204600201437BD46BDE8EE
:102DE000F08F00BFA07908002DE9F04F89B002AF45
:102DF000042BFA603A6CC7F808D0C7E904101488AD
:102E00000AD0036804220092D3F8DC502346A84776
:102E10001C37BD46BDE8F08FFB6807336A46DB0808
:102E2000A2EBC3039D460DF1080805238DF8083079
:102E3000002388F80130484B013CD3F800A0A4B22D
:102E40000225DAF800305046DB699847844258D2B0
:102E50003B6C5B88A34254D9DAF8003021461B6AE8
:102E60005046984703689B688346984742F6030399
:102E700001349842A4B255D15846FEF726FB231AD6
:102E800059425941DBF8003079609B6858469847B1
:102E90007968024611B9B0F5245F45D15846C7E9B3
:102EA0000012FEF785FAD7E900120228064614BF81
:102EB0000223012398F8010008B988F8013098F836
:102EC000010098421DD105F102091FFA89F928F87D
:102ED000054008EB090311B9B2F5245F27D1584624
:102EE0007B60FEF762FA7B6801463246184664F062
:102EF000D9F809EB0605ADB20236FB682E44B342A1
:102F00009FDA022D1CD17A693B6C12681B880A215A
:102F10000091D2F8DC40D7E904100422A047D7F88A
:102F200008D075E70021ADE702260123C2E7DBF8F0
:102F3000003058469B689847043528F80900DAE7BE
:102F4000064B18680368CDF80080D3F894403969BF
:102F5000EBB20422A047E2E740790800A07908001C
:102F60002DE9F04F89B002AF052B3E6CC7F808D0B1
:102F70008346C7E9032134880BD8036804220092F2
:102F8000D3F8DC5006222346A8471C37BD46BDE8CF
:102F9000F08FFA6807326946D208A1EBC202954663
:102FA00007228DF80820B288B2F5205F0DF1080ADB
:102FB0000DD0DBF8002033880A210091D2F8DC40E4
:102FC000396906225846A047D7F808D0DDE7063B06
:102FD0009BB27B61274B013CD3F80090B31DA4B298
:102FE00001257B60D9F800304846DB699847844268
:102FF00032D27388A3422FD9D9F8003021461B6AF8
:103000004846984703689B6880469847B388834240
:103010001BD14046FEF7CCF97B69984215D140465A
:10302000FEF7C3F97A69796864F00AF868B940462E
:10303000FEF793FE2AF805004046FEF790FEAB1C13
:103040009BB204352AF80300ADB2FA68EB1C9A4231
:1030500002DD0134A4B2C5E7012DAAD0064B1868E1
:103060000368CDF800A0D3F894403969EBB204228C
:10307000A047A9E740790800A07908002DE9F04FA2
:1030800089B002AF062BBA603A6CC7F80CD0814603
:103090008B46158804D19388A3F52053012B0FD9B3
:1030A000D9F8003010220092D3F8DC402B46594664
:1030B0004846A047D7F80CD01C37BD46BDE8F08F76
:1030C000BB6807336A46DB08A2EBC3039D4602AE2A
:1030D00011238DF8083000237370364B013DD3F86F
:1030E00000A0ADB20224DAF800305046DB69984700
:1030F000854247D23B6C5B88AB4243D9DAF800305B
:1031000029461B6A504698473B6C02689B887B6146
:103110009268804690477B69834230D14046FEF7F3
:1031200047F90228034614BF142306233B61737832
:1031300078610BB93B7C737073783A69934221D103
:103140004046FEF70AFE30534046FEF708FEA31C39
:103150009BB20434A4B2F052331940467B60FEF7B0
:1031600024F97B687A690146184663F09BFF7B6906
:10317000BA681C443B69A4B223449A4202DB01357D
:10318000ADB2B0E7022C09D13B6CD9F800201B8806
:103190000A210091D2F8DC40102288E7064B18681B
:1031A00003680096D3F894500422E3B25946A84726
:1031B00080E700BF40790800A07908002DE9F04FB2
:1031C00089B002AF91463A6CC7F808D0062BC7E920
:1031D000031015880BD0036804220092D3F8DC405A
:1031E00008222B46A0471C37BD46BDE8F08F09F1E9
:1031F00007036A46DB08A2EBC3039D460DF10808EE
:1032000009238DF80830002388F801306D4B1B68C6
:103210007B613B6C013D0433ADB202247B607B6972
:1032200078691B68DB699847854280F083803B6C36
:103230005B88AB427ED97B6978691B6829461B6A2B
:10324000984703689B68064698473B6C9B88834277
:10325000336805F1010A1FFA8AFA9B6830467AD171
:10326000984742F6030398423DD13046FEF72DF9C8
:10327000824535D03046FEF79BF898F801200228A9
:10328000034614BF4FF0150B4FF0070B0AB988F82F
:1032900001B098F801203B605A454BD128F804A0B2
:1032A0003046FEF795F8A21C92B2023508F80200EB
:1032B000E21C92B2304628F80250FEF776F8053448
:1032C0003B68A4B208EB04051A460146284663F0A1
:1032D000E9FE3B681C44A4B2A344D9452ADB554609
:1032E0000135ADB29BE7336830469B68984742F69C
:1032F00002139842F4D128F804A03046FEF756FA9B
:103300000234A4B2A9EB040980B21FFA89F98145FD
:1033100028BF8146304608EB0405FEF749FA4A46C5
:1033200001464C44284609F1020963F0BBFEA4B2F1
:1033300088F80190022C38D13A693B6C12681B88DE
:103340000A210091D2F8DC40D7E903100822A047F7
:10335000D7F808D047E7984742F603039842BFD111
:103360003046FEF725F802288346B9D13046FEF7ED
:103370001CF85A460146786863F062FE0028AFD117
:1033800028F804A03046FEF72DF80234A4B2A9EBC9
:1033900004091FFA89F980B2814528BF8146304669
:1033A00008EB0405FEF71CF8B9E7074B186803683B
:1033B000CDF80080D3F89450F968E3B20422A8470E
:1033C000C6E700BF40790800A07908002DE9F04366
:1033D000012B97B0044602AF0E461546E8460BD0C7
:1033E000036804220092D3F8DC4018220023A0478F
:1033F0005437BD46BDE8F083B0F83E1129B33B6FAA
:103400001B78DB0721D5204B1868036801391B6A3C
:103410009847002381461C2000FB03F2A118B1F855
:10342000B0C0B4452CD1B432224491F8B310381D49
:10343000FDF74EFE4846B4F84431D4F84021391D1A
:10344000FEF745F9381DFDF78CFD00230735A4F87C
:103450003E31A4F84431ED086B46A3EBC5039D460D
:1034600019238DF80830094B186802AA03680092E6
:10347000D3F89440042201233146A047C546B7E75C
:103480000133052BC8D1E0E740790800A079080096
:103490002DE9F04F87B002AF032B04460D467A604A
:1034A0001E46C7F80CD00DD8036804220092D3F84A
:1034B000DC4016220023A047D7F80CD01437BD46B5
:1034C000BDE8F08FBB6B1B883B811FFA83F8BB6B99
:1034D000B3F802B04B4BD3F80090D9F8003048460F
:1034E000DB69984708F1FF318BB2834206D9236824
:1034F0000A220092D3F8DC60434620E0D9F800307D
:1035000048461B6A984703689B688146984742F67D
:103510000303984202D023680B22EAE74846FDF7EE
:10352000D4FF40458246F6D14846FDF751FF0307D8
:103530000AD4236803210091D3F8DC605346162295
:1035400029462046B047B7E7B4F83E31E3B94846CC
:103550003B60FDF743FF01468246D4F8400163F02B
:10356000FFFE3B683A89A4F83E21C4F84001A4F864
:1035700044315246194663F093FEB4F844315B453A
:1035800007D023680722B4E75345F6D023680E21FD
:10359000D1E7331F5FFA83FA0BEB0A024846BA60A1
:1035A000FDF71CFFBA6880B28242EADCBB6BD4F83C
:1035B00040015246191D584463F074FDB4F844218B
:1035C000B96B0AEB0203A4F844317B6807336A46FF
:1035D000DB08A2EBC3039D4617238DF80830324663
:1035E0000DF1090063F05EFD074B186802AC02683C
:1035F0000094731CD2F89440DBB204222946A04701
:103600005AE700BF40790800A07908002DE9F04F83
:103610008FB002AFC7E90021FB60B0F8A830F968AD
:1036200007336A46DB08A2EBC30307F118059D4682
:103630008346284600F0E8FE0DF108090124BD602C
:10364000DBF80030CDF804904FF420520092D3F80C
:10365000BC5079684FF6FF7322465846A847054686
:1036600020B199F80030112B04D001203437BD4629
:10367000BDE8F08F99F801307B61A3F104080223C3
:103680005FFA88F809F102063B614FF6FF7A3B6961
:10369000AB4204DB4FF6FF739A45D1D0E5E7FB68F8
:1036A000E3B9302059F09CFE3146728831F8043B72
:1036B000009204464246FEF7F1FD21463868FEF7C7
:1036C0007BFD7488D7E904320134A4B2002C134482
:1036D00008BF4FF0000A3B611644D8E7B86800F015
:1036E000D1FE4045EDD1B86800F0CAFE4246014621
:1036F000301D63F0A5FC0028D3D0E2E72DE9F04FA0
:103700008DB0B0F8A83004AFC7E9042107336A468A
:10371000DB08A2EBC3039D4682463869FEF763FDD2
:103720000DF11009F8604FF00008FB6898454ADA7F
:1037300041463869FEF759FDB861FEF7C9FD0646F6
:10374000B869FEF7C7FDB860DAF80030CDF804902C
:1037500042F603020092D3F8A8407969BB6832466A
:103760005046A047054678B399F80030092B27D179
:1037700099F80130FB61053BDBB27B6009F1020483
:103780004FF0020BAB45DFDA382059F029FEB4F8D0
:1037900003300293A37801932388009306467B6944
:1037A0007A68611DFEF796FB3146B869FEF7A4FD05
:1037B000B4F80360FB690136B6B29B441C44E1E7F0
:1037C00008F10108B1E701202437BD46BDE8F08FBC
:1037D0002DE9F04F8FB0B0F8A83002AF0733C7E93A
:1037E0000421DB086A46A2EBC3039D4602AB824676
:1037F0003869FB62FEF7F7FC4FF0000BF860FB68DE
:103800009B456EDA59463869FEF7EFFC7862FEF7A1
:1038100061FDB860786AFEF75FFD431E38620026DE
:103820007B603B6A9E4259DA3146786AFEF756FD64
:103830007B68F8619E424AD0711C786AFEF74EFDA3
:103840000546F869FEF7BEFB013084B2002D40D07A
:103850002846FEF7B7FBB862BB6AA3423CD3DAF84E
:103860000030FA6A0092D3F898507969BB6A224610
:103870005046A8470546002834D0FB6A1B78052B24
:103880002AD1FB6A93F801904FEA8903BB61FB6A76
:103890004FF0020903F10208A945E0DA202059F0AF
:1038A0009FFDB8F800300093022208EB02010446A5
:1038B0007B69FEF765FC2146F869FEF785FBB8F8E1
:1038C0000040BB690134A4B299449844E4E7002560
:1038D000B7E7BB68BB62BFE70136A2E70BF1010B9C
:1038E0008DE701203437BD46BDE8F08F022A7FB551
:1038F00004460D4609D0036804220092D3F8DC4048
:1039000002220023A04704B070BD1B88B0F8A82095
:103910009A4228BF1A461C20002300FB0341B1F83D
:10392000B060AE4211D1A1F8C020ADF80D20094A17
:10393000032310688DF80C30026803A90091D2F8B7
:10394000944029460422A047DDE70133052BE4D14A
:10395000EBE700BFA0790800042A15D1B0F8482190
:103960008A4211D190F84A211978013A8A420BD142
:10397000D0F84C2101211170D0F84C211B68C2F8FD
:103980000130052380F850317047022A70B51CD1F0
:1039900000221C2505FB0204B4F8B0608E4215D14C
:1039A0001A88A4F8C020B0F848218A420DD190F8B6
:1039B0004A21032A09D1D0F84C110A70D0F84C11D1
:1039C0001B88A1F8013080F8502170BD0132052A12
:1039D000E0D1E8E7012A38B50446154613D9B0F816
:1039E000480188420FD194F84A0105280BD1D4F838
:1039F0004C110870D4F84C0119460130013563F0C0
:103A000051FB84F8505138BD012A38B5044615469B
:103A100013D9B0F8480188420FD194F84A0111280F
:103A20000BD1D4F84C110870D4F84C011946013070
:103A3000013563F037FB84F8505138BD38B5044682
:103A4000B0F84801884215460FD194F84A110B2965
:103A50000BD1D4F84C010170D4F84C011946013057
:103A6000013563F01FFB84F8505138BD38B504466A
:103A700015469AB1B0F8480188420FD194F84A012E
:103A800009280BD1D4F84C110870D4F84C01194610
:103A90000130013563F006FB84F8505138BD6AB936
:103AA000B0F848318B4209D190F84A31132B01BF4D
:103AB000D0F84C211370012380F85031704700007A
:103AC00070B5054690F8850094B0F8B1104B114CD4
:103AD0001868B4F84410036801391B6A984704F168
:103AE0004702064694F8461001A8FDF7F1FA94F84B
:103AF0004D3004F14E0201A93046FDF7E8FD01A862
:103B0000FDF72FFA002385F88530012014B070BD31
:103B1000407908000C1402202DE9F04F9BB0012BD6
:103B20008846049261D9249A023B1688059300F5D1
:103B3000A07200F1B404039234F8043C43453FD131
:103B40002569002D40D02846FEF74DFB4FF0000AB6
:103B50008146D14534DD51462846FEF746FB0746EF
:103B6000FEF7B6FB864228D93846FEF7B3FB8642FD
:103B700023D83846FEF7B0FB249B8146002503F18D
:103B8000020AA9451CDD29463846FEF7A7FB8346F5
:103B9000FEF718FA86420ED1224614F8011C07A837
:103BA000FDF796FA5846059B524607A9FEF77AFAA2
:103BB00007A8FDF7D6F90135E3E70AF1010AC8E7DE
:103BC000039B1C34A342B7D1049B1D2B0DD11AAB10
:103BD0001E2203F84C2D064A106802680093D2F8A2
:103BE0009440012304224146A0471BB0BDE8F08F5A
:103BF000A07908001F4B70B5044640F8863B03F0DF
:103C000062F904F1870003F05EF91B4B04F198059B
:103C100003F11006186859682A4603C20833B342F4
:103C20001546F7D141F288331721C4F8AC30002390
:103C3000A4F8A810A4F83E31C4F84031A4F84431E7
:103C400004F1B40204F5A0704FF6FF7522F8045C8D
:103C500002F8023C02F8013C1360938091811361E9
:103C600013751C328242F1D1C4F85431C4F8583172
:103C7000204670BD00780800E47708002DE9F04F79
:103C800000230446A7B098464FF0FF351C204FF69E
:103C9000FF7600FB0342B2F8B0208A4208BF1D46FF
:103CA000B24203F1010318BF08F10108052BF0D15E
:103CB0006B1C6ED01C236B4303F1B4072344E6193D
:103CC000324693F8B3106846FDF702FAB8F1010FD7
:103CD0002FD1314BD3F800804FF0000942F6030B8F
:103CE000D8F800304046DB6998471FFA89FA5045FA
:103CF0001AD9D8F8003051461B6A404698470368E5
:103D00009B688246984758450BD1694613A8FDF732
:103D1000F1FB5046002213A9FDF7F9FC13A8FDF7AB
:103D200020F909F10109DBE70023A4F83E31A4F8EA
:103D30004431D4F85881B8F1000F08D0694613A86F
:103D4000FDF7D8FB13A8C04713A8FDF70AF91C23F9
:103D500003FB05434FF6FF72C3F8B0200022E25187
:103D6000B280D3F8C400A3F8C8201721A3F8C0106C
:103D700083F8CA2083F8CB2010B103685B689847AA
:103D80001C2303FB05440023C4F8C4306846FDF738
:103D9000E8F827B0BDE8F08F407908002DE9F04F32
:103DA000A9B000F5A073DFF8DCB00193064600F17E
:103DB000B4044FF000084FF6FF7934F8041C49456D
:103DC00051D02F4B18680368D3F8983098470546B0
:103DD000002848D1224614F8011C02A8FDF778F902
:103DE000DBF8007008F101083B683846DB6998474A
:103DF0001FFA85FA50451AD93B6851461B6A384666
:103E00009847026892688246904742F603039842B8
:103E10000BD102A915A8FDF76DFB5046002215A98C
:103E2000FDF775FC15A8FDF79CF80135DCE70023CC
:103E3000A6F83E31A6F84431206904F8023C04F8A3
:103E4000013C2360A380C4F806306381172324F863
:103E5000049CA38110B103685B6898470023236129
:103E600002A8FDF77EF8019B1C349C42A5D1B8F155
:103E7000000FD4BF0020012029B0BDE8F08F00BFA3
:103E8000A07908004079080010B500231C2101FB2F
:103E9000030292F8C840A40702D5B2F8B00010BDE2
:103EA0000133052BF3D10620F9E730B500231C249C
:103EB00004FB0302B2F8B0508D4204D00133052B4D
:103EC000F6D1002001E092F8C80030BD2DE9F04F96
:103ED00099B002AF044697F880B07A60BBF1010F49
:103EE0000E461D460DD8122B07D1036804220092FE
:103EF000D3F8DC402A460023A0475C37BD46BDE826
:103F0000F08FD7F88430B3F800808E4BD3F800A040
:103F1000DAF800305046DB69984708F1FF318BB280
:103F200083420CD9122DE8D123680A220092D3F8DB
:103F3000DC902A46434631462046C847DDE7DAF89A
:103F4000003050461B6A984703689B688146984733
:103F500042F60303984240F0AD804846FDF7B5FABB
:103F60008045484601D1122D4AD1FDF731FA0107AB
:103F700040F1E2804846FDF72EFA10F002000FD023
:103F800031462046FFF791FF03063FD423680F22F6
:103F90000092D3F8DCA0204643461222D0470120ED
:103FA00000234FF01C0C0CFB03F2A118B1F8B0E099
:103FB000B64565D1D7F8843091F8B310ABF1020B58
:103FC000B4325FFA8BFB03F1020A224480B303236D
:103FD00084F88530A4F8448084F846101368C4F847
:103FE00047309388A4F84B30BBF1360F4FF00A03EB
:103FF00084F84DB084F885300AD92368112295E7FA
:10400000FDF7E6F942077FF578AFB3E70020C7E791
:104010005A46514604F14E0063F044F894F8853056
:10402000122D9B4484F885B07FF467AF6D463AE06B
:1040300007F10C00FDF74CF85B46524607F10C0106
:104040004846FDF744FB07F10C00FCF78AFF122DF0
:104050007FF453AF7B6807336D46DB08A5EBC303E2
:104060009D46132202AB8DF80820374A106802687B
:104070000093D2F89440012304223146A04717E070
:104080000133052B8FD1122D7FF437AF7B680733B7
:104090006D46DB08A5EBC3039D46132202AB8DF8EA
:1040A00008200028E1D013232371012384F88430F1
:1040B000AD4622E7D9F8003048469B689847B0F5EE
:1040C000245F39D14846FDF773F9022834D14846B8
:1040D000FDF76BF9028842F602139A422CD1DAF806
:1040E0000030A8F102011B6A5046984703689B689C
:1040F0008146984742F6030398421DD100231C20B5
:1041000000FB03F2A118B1F8B0C0B44510D1B4322D
:10411000224491F8B31007F10C00FCF7D9FFD7F84F
:10412000843007F10C015A884846FDF7F0FA8AE717
:104130000133052BE4D18AE7122D7FF4DEAE23682C
:104140000322F3E640790800A07908002DE9F04F3A
:104150009DB0984602AFB8F10A0F154604460E46C8
:1041600097F89020D7F89430C7F80CD00FD1022AD6
:1041700017D0036804220092D3F8DC4042460023A3
:10418000A047D7F80CD06C37BD46BDE8F08F042AA5
:1041900007D0036804220092D3F8DC400C220023ED
:1041A000EEE7B8F10A0FB3F8009014BF5B88002364
:1041B0007B618A4BD3F800B0DBF800305846DB69EE
:1041C000984709F1FF318BB2834207D923680A224D
:1041D0000092D3F8DC5042464B4625E005F1FF3A09
:1041E0000735ED086B46A3EBC5039D46B8F10A0FF2
:1041F0006A4614BF0D230B2302F8083FDBF800309A
:104200003A611B6A5846984703689B680546984779
:10421000B0F5205F2AD17B6953B123680422009254
:10422000D3F8DC500B224B4631462046A847A8E77E
:104230002846FDF7BDF880462846FDF7B6F8424609
:1042400001460DF1090062F02DFF08F101081FFA87
:1042500088F8634B3A69186803680092D3F8944071
:1042600004225FFA88F33146A0478AE742F6030347
:10427000984240F08F802846FDF725F948451DD12A
:104280007B6913B123680B22A2E72846FDF7A0F84B
:104290003B6958702846FDF718F93B695880284655
:1042A000FDF786F880462846FDF77FF8424601462E
:1042B00003A862F0F7FE08F10408C8E72846FDF7F6
:1042C00087F8820702D42368022281E72846FDF797
:1042D00082F810F0020B10D031462046FFF7E5FDC2
:1042E000030614D423680F220092D3F8DCB04246B0
:1042F0004B462046D8474FF0010B2846FDF772F891
:104300007A6983B29A4205D32368072260E74FF0A7
:10431000000BF2E77B6980B2C01A8245A8BF8246D3
:104320001FFA8AF3BB6004F5A07304F1B4097B6043
:104330004FF001081FFA8AFA39F8043CB34218D149
:104340004A4619F8011C07F11C00FCF7C1FECDF824
:1043500000A03B697A69434407F11C012846FDF738
:1043600097F907F11C00FCF7FCFDBB6898441FFAA5
:1043700088F87B6809F11C099945DDD1BBF1000F74
:104380003FF467AF42463969201D62F08BFE84F826
:104390008480F6E6B0F5245F1DD12846FDF706FAC5
:1043A0007A6983B29A42AFD27B6980B2A0EB0308EC
:1043B000C2452846A8BFC246FDF7FAF97B691FFA35
:1043C0008AF2C1180AF1010A0DF1090062F06AFED1
:1043D0001FFA8AF83DE74FF001083AE740790800F4
:1043E000A079080010B5054C2046FFF703FC2046D5
:1043F000034A0449BDE8104058F0E7BD0C14022000
:10440000000200203D27010073B5002504460E463A
:1044100040F8041B10222946ADF804508DF80650D0
:1044200062F03EFF257526B3304663F069FB451EFA
:10443000002D237D19DB0F2B1ED8735D2D2B02D190
:104440000135023DF4E77219002112F8012C8DF8B4
:10445000042001A810228DF8053063F0AFFD237D04
:10446000E218013310712375EBE7022B04D8022305
:104470002375204602B070BD1023F9E7006870472D
:1044800004307047007D70472DE9F047144C80469A
:104490004D1E4FF4AA594FF02D0A6A1C1AD018F875
:1044A000057010222146380921F04FFD1022611CB1
:1044B00007F00F0021F049FD0C2D04F1020606DC87
:1044C00029FA05F3DB0744BFE61C84F802A0013D8E
:1044D0003446E2E7002323700148BDE8F08700BFBF
:1044E00068150220007970472DE9F04F89B0904699
:1044F0000DF1180B027A9DF848601F46002305460F
:1045000089460693ABF80430FAB99E4214BF4FF0C7
:10451000020A4FF0030A2B6828461B699847194B7B
:10452000EA881C680021072023680091CDE9030177
:10453000CDE9011B2046D3F83CB011465346D8477D
:1045400028B1002009B0BDE8F08F9A46E3E7236860
:104550004A461B6C4146204698470028F1D1236803
:104560003A465B6C3146204698470028E9D12368DB
:1045700001219B6C204698470028E2D10120287138
:10458000E0E700BFA0790800034B00210171186823
:1045900003689B6C184700BFA07908002DE9F34120
:1045A000124B1D682B6801221B6D07460E462846DC
:1045B0000021002498472B68CDE90044D3F84C80B3
:1045C00020231A4601212846C04768B90121797184
:1045D0002B6886EA01021B6D28469847B0FA80F0E6
:1045E000400902B0BDE8F0812046FAE7A079080052
:1045F000C180704701727047022908BFC2607047CE
:1046000070B50B4D04461C30164621F0E9FB2946D7
:1046100004F1280021F0FDFB294604F1340021F0CB
:10462000F8FB2368314620465B69BDE870401847B7
:10463000E01209002DE9F0410C4D04460F461C30F4
:104640002946164621F0E5FB394604F1280021F001
:10465000C7FB294604F1340021F0DBFB2368314617
:1046600020465B69BDE8F041184700BFE012090031
:104670002DE9F0410C4D04460F461C3029461646E4
:1046800021F0C7FB294604F1280021F0C2FB39467E
:1046900004F1340021F0A4FB2368314620465B6915
:1046A000BDE8F041184700BFE01209007FB5C36BB9
:1046B00004460D468BB10B6801A89B69984701A978
:1046C00004F1340021F0FDFB064601A821F01EFB99
:1046D0001EB90024204604B070BD636A73B1294638
:1046E00001A8FCF709FD01A904F11C0021F0DCFB85
:1046F000064601A821F00AFB002EEAD0236B6BB11D
:10470000294601A8FCF772FD01A904F1280021F057
:10471000D8FB044601A821F0F9FADBE70124D9E728
:1047200038B5A0220E4D0F4B0360C280002301223A
:104730000446037143710272C0E90333C0E90533D3
:1047400029461C3021F02DFB294604F1280021F0D8
:1047500028FB294604F1340021F023FB204638BD14
:10476000E01209000079080003688B4208D9436809
:1047700000228A4202D05B680132FAE7186870476B
:104780000020704770B50446406800252368AB429E
:1047900006D94668082158F04FFE01353046F5E746
:1047A0000023C4E90033A36070BD000010B50A4BBC
:1047B000044640F8343B21F0A9FA04F1280021F026
:1047C000A5FA04F11C0021F0A1FA04F11000FFF792
:1047D000D9FF204610BD00BF0079080010B504467F
:1047E000FFF7E4FF2046402158F026FE204610BD8A
:1047F00070B50E4B05461868036800221B6D114604
:104800000024984705F110066C712B699C4209D26F
:1048100021463046FFF7A8FF10B103685B68984750
:104820000134F2E73046FFF7ADFF70BDA079080014
:1048300003688B4270B504461AD9002240681346BB
:104840008A42456803D0034601322846F8E70668E5
:1048500063B96560A268824208BFA360082158F06E
:10486000EBFD2368013B2360304670BD5D60F1E7DE
:104870000026F9E72DE9F041074694B00D460024E3
:1048800001F110082B699C422AD221464046FFF7CD
:104890006BFF0646FCF7E7FC00B3314601A8FCF7C6
:1048A00029FE21464046FFF7C3FF1EB1336830465C
:1048B0005B6898472B6801A9DB6B2846984750B185
:1048C00001A93846FCF716FE01A8FCF74AFB38465A
:1048D00014B0BDE8F08101A8FCF743FB0134D1E737
:1048E0003846FCF7E5FBF2E72DE9F04FC568ABB0C1
:1048F00004460F4692469B469DF8D0809DF9D8907D
:104900002DB3032922D11A46514604A8FCF7E0FB37
:10491000CDF80090359B4246394604A8FCF77DFC53
:10492000236804A9DB6B2046984748B104A917A85F
:10493000E468FCF7DFFD17A8A04717A8FCF711FBF8
:1049400004A8FCF70EFB2BB0BDE8F08F002504F1A6
:1049500010032269AA420DD9184629460393FFF78E
:1049600003FF5A4651460646FCF747FC039B0028C6
:1049700041D006BB23691F2B08D9002104F1100088
:10498000FFF756FF10B103685B6898474C2058F05A
:1049900027FD5A4651460646FCF79AFB082058F078
:1049A0001FFD0023C0E90063636933BB60612569B3
:1049B000A0616B1C2361042F22D0CDF80090359BA1
:1049C000424639463046FCF728FC3046FCF74BFCA3
:1049D0000028B8D0E368002BB5D0314604A8FCF716
:1049E00089FD294604F11000FFF722FF33683046A5
:1049F0005B68984794E70135ABE7A3695860D6E751
:104A00004B46359A41463046FCF718FCDDE770B45A
:104A100046799DF80C409DF9145026B105950394F4
:104A200070BCFFF761BF70BC7047000010B5054C4B
:104A30002046FFF775FE2046034A0449BDE81040B2
:104A400058F0C3BA9015022000020020AD470100C3
:104A5000406870474368994208D2836800229142B7
:104A600002D05B680132FAE718687047002070478F
:104A700073B50446302058F0B3FC32490546FDF7C3
:104A800059F9E561542058F0ABFC00250646142383
:104A900002222D490095FCF767FD2662542058F04C
:104AA0009FFC02231A46064628490095FCF75CFD48
:104AB0006662302058F094FC25490646FDF73AF925
:104AC000A662542058F08CFC202204232149009532
:104AD0000646FCF749FDE662E069FCF76CFC206ADB
:104AE000FCF769FC606AFCF766FCA06AFCF763FCF3
:104AF000E06AFCF760FCD4E90701FDF742F9616A5E
:104B0000E069FDF73EF9D4E90A01FDF73AF92368B7
:104B100011491B69204698472368294620465B694E
:104B2000984723682046DB6A98472368E1699B6AB7
:104B3000204698472368A16A9B6A204602B0BDE8D8
:104B40007040184744790800497908004E790800F8
:104B500053790800587908005D79080010B50446BB
:104B6000C06948B1FCF72CFC30B9E06910B10368AA
:104B70005B6898470023E361206A48B1FCF720FC9A
:104B800030B9206A10B103685B689847002323623C
:104B9000606A48B1FCF714FC30B9606A10B1036870
:104BA0005B68984700236362A06A48B1FCF708FC81
:104BB00030B9A06A10B103685B6898470023A3620C
:104BC000E06A48B1FCF7FCFB30B9E06A10B1036859
:104BD0005B6898470023E36223682046DB6ABDE8F0
:104BE00010401847006AFCF75FBC07B502AB022211
:104BF00023F8021D406A1946FCF7F6FB03B05DF886
:104C000004FB10B504460846FCF78DFB014628B1AD
:104C1000236820469B6ABDE81040184710BD2DE967
:104C2000F0410025074688462C463B683846DB693C
:104C30009847A84211D93B6829461B6A38469847CD
:104C400003689B6806469847B0F5205F02D046454A
:104C500003D0264601353446E7E720463CB1FCF751
:104C6000A7FB0228204604D1FCF79FFB0088BDE883
:104C7000F081FCF79AFB4089F9E70000074A0260DF
:104C80000022C0E90122C0E90322C0E90522C0E9EF
:104C90000722C0E90922C262704700BF707908008C
:104CA00038B5044608200D4658F09AFB0023C0E9A9
:104CB000005363682BB960602368A06001332360F0
:104CC00038BDA3685860F7E72DE9F84F04460D4654
:104CD000084604F10408FCF76EFB29464046FFF73E
:104CE000DFFF082058F07CFB0023C0E90053636914
:104CF000002B47D160612369A061013323612368E0
:104D00002046DB69984700271FFA80FB2846FDF7FD
:104D100028F8B8423BD939462846FDF724F806461C
:104D2000FCF749FB31464046FFF7BAFF23682046AF
:104D3000DB69984781B23046FCF7C3FB3046FCF78D
:104D40003AFB31464046FFF7ABFF4FF000093046D3
:104D5000FCF7BFFB484518D949463046FCF7BBFB7A
:104D60008246FCF728FB51464046FFF799FF23682F
:104D70002046DB69984781B25046FCF71BFD09F1DC
:104D80000109E4E7A3695860B5E70137BEE7236886
:104D90002046DB699847594682B22846BDE8F84F5D
:104DA000FCF7D8BF70B50446406800252368AB42C5
:104DB00006D94668082158F03FFB01353046F5E733
:104DC0000023C4E90033A36070BD70B50446406899
:104DD00000252368AB4206D94668082158F02CFB11
:104DE00001353046F5E70023C4E90033A36070BD08
:104DF00038B50546064B45F8103B0446FFF7AEFEB6
:104E00002846FFF7E2FF201DFFF7CCFF204638BD04
:104E10007079080010B50446FFF7EAFF20463021FC
:104E200058F00AFB204610BD70B5044600252368E3
:104E30002046DB699847A8420FD9236829461B6A98
:104E4000204698470646FCF7BBFA20B91EB13368E6
:104E500030465B6898470135E9E7201DFFF7A2FF60
:104E6000002523699D420BD263690022954202D03E
:104E70005B680132FAE71868FCF7BAFF0135F0E722
:104E800004F11000FFF7A1FF70BD000008B5054B4D
:104E90001846FFF7F3FE044A04491846BDE80840E7
:104EA00058F093B8D015022000020020F14D010007
:104EB000704700000023C0F80831024B18680368EF
:104EC0001B681847DC7A0800024B186803685B68A7
:104ED000184700BFDC7A0800036800215B691847A7
:104EE00010B40368D3F8A4400023A4461A4640F641
:104EF00003415DF8044B604737B5026802ABD2F856
:104F0000A45023F8021D022241F205410446A8479D
:104F100050B9D4F81832BDF806201988914203D14F
:104F200093F9020003B030BD7F20FBE713B502A95F
:104F300061E9022303680822D3F8A4400B4640F637
:104F40000141A04702B010BD13B502A961E90223D7
:104F500003680822D3F8A4400B4642F20101A0479F
:104F600002B010BD10B40368D3F8A44006220B466B
:104F7000A44642F205015DF8044B60471FB5089C4A
:104F80008DF804309DF818308DF805309DF81C30F0
:104F90008DF806302368CDF80730A388ADF80B30C4
:104FA0009DF824308DF80D309DF828308DF80E30A6
:104FB0000368ADF80010ADF80220D3F8A4400F222A
:104FC0006B4642F20601A04704B010BD13B502AB18
:104FD000026803F8011DD2F8A44042F20A0101223E
:104FE000A04702B010BD13B5ADF803309DF81030E6
:104FF0008DF805309DF814308DF8063003688DF873
:105000000010ADF80120D3F8A44007226B4642F20D
:105010000B01A04702B010BD13B503688DF8041052
:105020008DF80520D3F8A440022201AB42F20C0116
:10503000A04702B010BD10B588B00B9C8DF80830A9
:105040009DF828308DF809302368CDF80A30A38800
:10505000ADF80E309DF830308DF81030BDF834309A
:10506000ADF81130BDF83830ADF81330BDF83C3034
:10507000ADF81530BDF84030ADF81730BDF844300C
:10508000ADF81930BDF84830ADF81B300368ADF805
:105090000410ADF80620D3F8A440192201AB42F267
:1050A0000D01A04708B010BD10B40368D3F8A440A8
:1050B0000023A4461A4642F20E015DF8044B6047F5
:1050C0001FB5ADF80430BDF81830ADF80630BDF8A6
:1050D0001C30ADF808300423ADF80A300623ADF8D3
:1050E0000C300368ADF80010ADF80220D3F8A440EE
:1050F0000E226B4642F21301A04704B010BD10B45B
:10510000D0F8EC402CB11946104623465DF8044B0C
:1051100018475DF8044B7047F0B51D4603688BB027
:105120009B6F0F461646044698470AA8721E00F861
:10513000287D062312F8011F1954013BFAD1109B58
:105140006A1E0DF11701013B0F3512F8016F01F8CE
:10515000016DAA4213F8016F0E74F6D1236827225D
:10516000D3F8A45042F2270103462046A8472368FB
:105170002046DB6F98470BB0F0BD13B502AB013A88
:1051800003F8081D062112F8014FCC540139FAD159
:10519000026842F22B01D2F8A4400722A04702B0D5
:1051A00010BD07B503680122D3F8883069469847D7
:1051B00003B05DF804FB13B5002300930139CDF86B
:1051C0000330052311F8014F0DF8034013F1FF33AD
:1051D000F8D203688DF80620D3F8A44007226B4666
:1051E00040F60D41A04702B010BD13B513238DF852
:1051F0000630026802ABD2F8A44023F8041D032253
:1052000040F20641A04702B010BDC0F8041170473B
:105210000023C0F8043170473AB190F81D32934230
:1052200003DD9B1A80F81D3270470023FAE710B4A3
:10523000D0F8F8300C4623B1204611465DF8044BF7
:10524000184718465DF8044B704710B4D0F8EC309E
:105250000C4623B1204611465DF8044B184718460A
:105260005DF8044B704710B4D0F8F4300C4623B10D
:10527000204611465DF8044B184718465DF8044B6C
:105280007047D0F8FC302BB1D0F80001003018BFC7
:10529000012070470320704710B54FF44871044651
:1052A00058F0CAF8204610BD564B2DE9F047044689
:1052B0001D6819B12B6828469B6898472B68524E89
:1052C0009B69524FDFF84881284698472B6828464B
:1052D000DB6898472B68002800F08F805B692846C0
:1052E0009847D4F80831B3F5817F5FFA80F912DB73
:1052F0000023C4F80831D4F8043163B12B68284680
:10530000DB6998473146D4F8040120F0D3FB2B68C1
:1053100028469B699847D4F80821531C2244C4F8B6
:10532000083182F80C9194F80C21022A2ED1052B19
:10533000CCDD94F8101194F80F2102EB0122043215
:105340009342C3DD2B682846DB699847D4F80431C3
:105350004BB1236894F80821D3F8C090414604F576
:1053600086732046C8470023D4F80811C4F80831D2
:105370002368D3F8B430013904F20D12C9B22046C3
:1053800098472B6828469B6998479FE7042A21D1B4
:10539000032B9BDD94F80E210232934296DD2B689D
:1053A0002846DB699847D4F804314BB1236894F858
:1053B0000821D3F8C090394604F586732046C847C3
:1053C0000023D4F80811C4F8083123680139D3F850
:1053D000BC30D1E70023C4F80831D4F80431002BE5
:1053E0003FF474AF2B682846DB6998471022494682
:1053F000D4F8040120F0C2FBC3E72846DB69BDE80E
:10540000F0471847DC7A0800CA790800F2790800EA
:10541000DF7908001346F0B533F8046BC6F30137A3
:10542000022F87B00546144611D15488E4B219887A
:10543000221F8A4220D0022F07D12246194605F2A8
:105440001E2061F02FFE85F81D4307B0F0BD012F2F
:10545000FBD190F81D03528800F21E201946284403
:1054600061F020FE638895F81D431C44E4B285F882
:105470001D4305F21E23DAE75C88A0B20428C6F3B8
:105480000B010AD1184800680468246A0433D2B2B8
:10549000A047002385F81D33D7E7052804D113481A
:1054A00000680468E468F1E7062804D10F48006842
:1054B00004682469EAE700220392ADF8142001226F
:1054C0008DF80C200622ADF80E20022203ABADF8B9
:1054D00010202A680093ADF812400A23D2F89440B5
:1054E00028460522A047D4E7F4770800807B08000F
:1054F000F0B5202589B004460E46174600212A46FD
:10550000684661F0CDFE324639460DF101008DF856
:10551000006061F0C7FD23682A46D3F8A46042F218
:1055200008016B462046B04709B0F0BDF0B5202514
:1055300089B004460E46174600212A46684661F0A7
:10554000AFFE324639460DF101008DF8006061F082
:10555000A9FD23682A46D3F8A46042F209016B46EC
:105560002046B04709B0F0BD2DE9F047044600AF32
:105570008A4691461D4694F81D2294F81C329A42A0
:1055800004D3236820461B699847F4E705F110030C
:1055900003F4FC73ADEB030D02238DF800302B1DDB
:1055A000DBB22A46396AADF803300DF10900ADF8D7
:1055B00001A0ADF80550ADF8079061F073FDD4F887
:1055C000043105F10906E8463BB123680B49D3F8DD
:1055D000C050F2B26B462046A84794F81D32013302
:1055E00084F81D32064B1868036832461B6A414630
:1055F00098470020BD46BDE8F08700BFA4790800A9
:10560000DC7A08002DE9F0430D46114683B00B31DA
:1056100001F4FC7100AF0446ADEB010D01203871BF
:10562000A7F80550FA716846796840F8041B1946D6
:10563000161D61F037FDD4F80431E8463BB123680C
:105640001649D3F8C090F2B26B462046C847144BB7
:105650001868036832461B6A414698474FF6FF7345
:10566000A4F80E324FF0FF33C4F8103220F0A6FC3D
:1056700000F57A76B4F80E32AB4208D020F09EFCEA
:10568000B04204D2236820461B699847F2E7D4F859
:1056900010020C37BD46BDE8F08300BFB7790800A3
:1056A000DC7A080007B502AB002203F8012D42F2B4
:1056B0002D0101220248FFF7A5FF03B05DF804FBAE
:1056C0000016022007B502AB012203F8012D42F2B9
:1056D0002D010348FFF796FF03B05DF804FB00BF00
:1056E000001602207FB501238DF800300B68CDF83D
:1056F00001308B88ADF805300DF11701531E0F32C4
:1057000013F8010F01F8010D9342F9D16B461722EE
:1057100040F611410248FFF775FF07B05DF804FB42
:105720000016022013B50446684601F07DF9D4F84E
:10573000EC3063B1D4F8F4304BB1D4F8F83033B175
:10574000D4F8F0301BB10121684601F070F96846C9
:10575000012101F07EF96846012101F071F96846E6
:10576000012101F07FF92D2101A801F05EF99DF8DA
:10577000040002B010BD2DE9F0411D460368D3F8C6
:10578000A48000230F46164641F201011A46044642
:10579000C04770B9D4F818321A783A70B3F80120BB
:1057A0003280DA782A70069A99881180DA88079B05
:1057B0001A80BDE8F08113B5036869461B6A044688
:1057C000984750B9D4F81832D9345A1E053312F814
:1057D000011F04F801199A42F9D102B010BD00006E
:1057E000F8B50368D3F8A45000230E46174642F2DA
:1057F00002011A460446A847054678B9D4F818327B
:105800001A8832809B783B7084F81C32044B3188B4
:105810001868036809399B6889B298472846F8BD1B
:10582000F4770800F0B589B06F460E4614460021A3
:1058300020220546384661F033FD711E04AB621E1E
:1058400011F8010F03F8010D12F8010F1874BB4293
:10585000F6D12A6842F21701D2F8A4402846202245
:10586000A04750B90E9B1033D5F81822125C03F8EC
:10587000012D01301028F7D1012009B0F0BD70B51D
:105880000368D3F8A46000230C461A4641F20901CC
:105890000546B04728B9D5F818321A6822609B88A7
:1058A000A38070BD70B50368D3F8A46000230C46D4
:1058B0001A4642F218010546B04728B9D5F8182211
:1058C000136823605368636070BD00002DE9F041E8
:1058D0001678052EB2B0054614461DD19F4B52795D
:1058E0001868B4F8031003685B6A98479C4BB4F8D7
:1058F0000310186862790368C9B25B699847994BCD
:10590000186803689B68984718B101219648FFF70B
:105910005DFB32B0BDE8F081082E64D18F4BB2F848
:10592000031052791D68002A58D02846FEF7BDFAA8
:10593000C10734D505F18708404601F0C9FA404651
:1059400001F0CAFA28B332AF05F1980207F8446DA6
:10595000102312F8011BD955013BFAD1B4F80310FA
:105960008148009711230622FFF7FEFD09237F4A95
:10597000ADF884300623F91812F8010F4870013B86
:10598000F9D1B4F803107848009708230622FFF7EE
:10599000EBFD404601F0A4FA404601F0A5FA2B6861
:1059A000B4F803109B6E80222846984795F88530FE
:1059B00023B12B682846D3F88030984795F8843077
:1059C000002BA6D02A1DB4F80310674800920422C9
:1059D000FFF7CAFD002385F884309AE72B68284634
:1059E0009B6E984795E70E2E0ED1B2F80330A0F8C3
:1059F0000E325379C0F8103253780634043B80F8E5
:105A00001432C0F8184284E70F2E09D19388A0F809
:105A10000E329378C0F81032002380F8143278E701
:105A2000132E12D193780734D61C04EB830404366A
:105A3000B4423FF46EAF2B6836F8022CD3F8B8307E
:105A400036F8041C28469847F1E73E2E7FF461AFF4
:105A50009378013B092B3FF65CAF01A252F823F08B
:105A6000DF5A0100295B010013590100135901009D
:105A7000715B01000B5C010013590100375C0100F0
:105A8000515D0100895A0100E378002B7FF441AF9A
:105A9000324B94F820701868A279E379A1880668DF
:105AA0000497E78B0397A78B0297678B04F1080590
:105AB000CDE90057F669B047294B94F82070186873
:105AC000A279E379A18806680497E78B0397A78BEF
:105AD0000297648BCDE90054B468A04719E7E378D6
